{
  "_format": "hh-sol-artifact-1",
  "contractName": "SimpleLudo",
  "sourceName": "contracts/LudoMap.sol",
  "abi": [
    {
      "inputs": [
        {
          "internalType": "address",
          "name": "player1",
          "type": "address"
        },
        {
          "internalType": "address",
          "name": "player2",
          "type": "address"
        },
        {
          "internalType": "address",
          "name": "player3",
          "type": "address"
        },
        {
          "internalType": "address",
          "name": "player4",
          "type": "address"
        }
      ],
      "stateMutability": "nonpayable",
      "type": "constructor"
    },
    {
      "inputs": [],
      "name": "currentPlayerTurn",
      "outputs": [
        {
          "internalType": "uint256",
          "name": "",
          "type": "uint256"
        }
      ],
      "stateMutability": "view",
      "type": "function"
    },
    {
      "inputs": [
        {
          "internalType": "uint256",
          "name": "playerIndex",
          "type": "uint256"
        }
      ],
      "name": "getPlayerPosition",
      "outputs": [
        {
          "internalType": "uint256",
          "name": "",
          "type": "uint256"
        }
      ],
      "stateMutability": "view",
      "type": "function"
    },
    {
      "inputs": [
        {
          "internalType": "uint256",
          "name": "",
          "type": "uint256"
        }
      ],
      "name": "players",
      "outputs": [
        {
          "internalType": "address",
          "name": "user",
          "type": "address"
        },
        {
          "internalType": "uint256",
          "name": "position",
          "type": "uint256"
        }
      ],
      "stateMutability": "view",
      "type": "function"
    },
    {
      "inputs": [],
      "name": "rollandMove",
      "outputs": [],
      "stateMutability": "nonpayable",
      "type": "function"
    }
  ],
  "bytecode": "0x60806040523480156200001157600080fd5b5060405162000b4f38038062000b4f833981810160405281019062000037919062000322565b60405180604001604052808573ffffffffffffffffffffffffffffffffffffffff1681526020016000815250600080600481106200007a576200007962000394565b5b6002020160008201518160000160006101000a81548173ffffffffffffffffffffffffffffffffffffffff021916908373ffffffffffffffffffffffffffffffffffffffff1602179055506020820151816001015590505060405180604001604052808473ffffffffffffffffffffffffffffffffffffffff1681526020016000815250600060016004811062000116576200011562000394565b5b6002020160008201518160000160006101000a81548173ffffffffffffffffffffffffffffffffffffffff021916908373ffffffffffffffffffffffffffffffffffffffff1602179055506020820151816001015590505060405180604001604052808373ffffffffffffffffffffffffffffffffffffffff16815260200160008152506000600260048110620001b257620001b162000394565b5b6002020160008201518160000160006101000a81548173ffffffffffffffffffffffffffffffffffffffff021916908373ffffffffffffffffffffffffffffffffffffffff1602179055506020820151816001015590505060405180604001604052808273ffffffffffffffffffffffffffffffffffffffff168152602001600081525060006003600481106200024e576200024d62000394565b5b6002020160008201518160000160006101000a81548173ffffffffffffffffffffffffffffffffffffffff021916908373ffffffffffffffffffffffffffffffffffffffff16021790555060208201518160010155905050600060088190555050505050620003c3565b600080fd5b600073ffffffffffffffffffffffffffffffffffffffff82169050919050565b6000620002ea82620002bd565b9050919050565b620002fc81620002dd565b81146200030857600080fd5b50565b6000815190506200031c81620002f1565b92915050565b600080600080608085870312156200033f576200033e620002b8565b5b60006200034f878288016200030b565b945050602062000362878288016200030b565b935050604062000375878288016200030b565b925050606062000388878288016200030b565b91505092959194509250565b7f4e487b7100000000000000000000000000000000000000000000000000000000600052603260045260246000fd5b61077c80620003d36000396000f3fe608060405234801561001057600080fd5b506004361061004c5760003560e01c8063564c49d5146100515780639bbd89171461006f578063d4f15f2414610079578063f71d96cb146100a9575b600080fd5b6100596100da565b6040516100669190610387565b60405180910390f35b6100776100e0565b005b610093600480360381019061008e91906103d3565b6102bc565b6040516100a09190610387565b60405180910390f35b6100c360048036038101906100be91906103d3565b610324565b6040516100d1929190610441565b60405180910390f35b60085481565b600073ffffffffffffffffffffffffffffffffffffffff163373ffffffffffffffffffffffffffffffffffffffff160361014f576040517f08c379a0000000000000000000000000000000000000000000000000000000008152600401610146906104c7565b60405180910390fd5b600060085460048110610165576101646104e7565b5b6002020160000160009054906101000a900473ffffffffffffffffffffffffffffffffffffffff1673ffffffffffffffffffffffffffffffffffffffff163373ffffffffffffffffffffffffffffffffffffffff16146101fa576040517f08c379a00000000000000000000000000000000000000000000000000000000081526004016101f190610562565b60405180910390fd5b60006001600642336040516020016102139291906105eb565b6040516020818303038152906040528051906020012060001c6102369190610646565b61024091906106a6565b905060348160006008546004811061025b5761025a6104e7565b5b600202016001015461026d91906106a6565b6102779190610646565b60006008546004811061028d5761028c6104e7565b5b6002020160010181905550600460016008546102a991906106a6565b6102b39190610646565b60088190555050565b600060048210610301576040517f08c379a00000000000000000000000000000000000000000000000000000000081526004016102f890610726565b60405180910390fd5b60008260048110610315576103146104e7565b5b60020201600101549050919050565b6000816004811061033457600080fd5b600202016000915090508060000160009054906101000a900473ffffffffffffffffffffffffffffffffffffffff16908060010154905082565b6000819050919050565b6103818161036e565b82525050565b600060208201905061039c6000830184610378565b92915050565b600080fd5b6103b08161036e565b81146103bb57600080fd5b50565b6000813590506103cd816103a7565b92915050565b6000602082840312156103e9576103e86103a2565b5b60006103f7848285016103be565b91505092915050565b600073ffffffffffffffffffffffffffffffffffffffff82169050919050565b600061042b82610400565b9050919050565b61043b81610420565b82525050565b60006040820190506104566000830185610432565b6104636020830184610378565b9392505050565b600082825260208201905092915050565b7f61646472657373207a65726f2064657465637465640000000000000000000000600082015250565b60006104b160158361046a565b91506104bc8261047b565b602082019050919050565b600060208201905081810360008301526104e0816104a4565b9050919050565b7f4e487b7100000000000000000000000000000000000000000000000000000000600052603260045260246000fd5b7f4f6761206e6f20626520796f7572207475726e00000000000000000000000000600082015250565b600061054c60138361046a565b915061055782610516565b602082019050919050565b6000602082019050818103600083015261057b8161053f565b9050919050565b6000819050919050565b61059d6105988261036e565b610582565b82525050565b60008160601b9050919050565b60006105bb826105a3565b9050919050565b60006105cd826105b0565b9050919050565b6105e56105e082610420565b6105c2565b82525050565b60006105f7828561058c565b60208201915061060782846105d4565b6014820191508190509392505050565b7f4e487b7100000000000000000000000000000000000000000000000000000000600052601260045260246000fd5b60006106518261036e565b915061065c8361036e565b92508261066c5761066b610617565b5b828206905092915050565b7f4e487b7100000000000000000000000000000000000000000000000000000000600052601160045260246000fd5b60006106b18261036e565b91506106bc8361036e565b92508282019050808211156106d4576106d3610677565b5b92915050565b7f506c6179657220696e646578206e6f2064657900000000000000000000000000600082015250565b600061071060138361046a565b915061071b826106da565b602082019050919050565b6000602082019050818103600083015261073f81610703565b905091905056fea2646970667358221220795fc31b3f72b65bf43b34968ab5494afd9a7e7cd4b1e49a9970550990cb469f64736f6c63430008180033",
  "linkReferences": {},
  "deployedLinkReferences": {}
}